:020000040800F2
:100000007806002081010008BB090008B909000832
:1000100000000000000000000000000000000000E0
:10002000000000000000000000000000BF09000800
:100030000000000000000000BD090008C109000820
:100040009301000893010008930100089301000840
:100050009301000893010008930100089301000830
:100060009301000893010008930100089301000820
:100070009301000893010008930100089301000810
:100080009301000893010008930100089301000800
:1000900093010008930100089301000893010008F0
:1000A00093010008930100089301000893010008E0
:1000B00093010008930100089301000893010008D0
:1000C00000F002F800F04CF812A030C808382418EC
:1000D0002D18AC4201D100F043F80FCCA246AB463C
:1000E0000CA730CF2D1B083F3F197C427F1E544484
:1000F0002D090426F441641EAC4201D300F030F80F
:100100000126334200D0FB1A3343984754465D46DC
:10011000DFE700003819000058190000103A02D338
:1001200078C878C1FAD8520701D330C830C101D598
:1001300004680C6070470000704700000023002432
:1001400000250026103A01D378C1FBD8520700D30E
:1001500030C100D50B6070471FB51FBD10B510BD75
:1001600000F04DF81146FFF7F7FF00F017FD00F023
:1001700065F803B4FFF7F2FF03BC00F06BF8000072
:100180000748804707480047FEE7FEE7FEE7FEE72F
:10019000FEE7FEE704480549054A064B70470000A4
:1001A000C9090008C1000008780000207806002076
:1001B000780200207802002001E004C0091F042911
:1001C000FBD28B0701D50280801CC90700D00270CA
:1001D000704700290BD0C30702D00270401C491E93
:1001E000022904D3830702D50280801C891EE3E71D
:1001F0000022EEE70022DFE7704770477047754640
:1002000000F024F8AE46050069465346C008C00019
:10021000854618B020B5FFF7BDFF60BCB646002686
:100220000027C0C5C0C5C0C5C0C5C0C5C0C5C0C504
:10023000C0C5403D490849008D46704710B5044689
:10024000C046C0462046FFF794FF10BD00487047E7
:100250001000002001491820ABBEFEE72600020076
:1002600070470000B0B5044600F00CF80546601C6D
:1002700002D021480078041900F004F8401BA04285
:10028000FAD3B0BD054800687047C0461A480078E8
:1002900002490A68101808607047C04670000020C4
:1002A00080B58548016810220A430260032000F0EF
:1002B00005F800F023F8002080BDC04670B5044664
:1002C0007D20C0000C4E317801F0ACFA0146824826
:1002D000006801F0A7FA00F055FB0125032C08D8AF
:1002E000002806D10025E84321462A4600F01CF8E4
:1002F0007460284670BDC0460000002082B00948E6
:1003000001680122114301600168114001910199C6
:10031000110742680A434260406808400090009814
:1003200002B0704718100240002805D4032203468B
:1003300093430A4A9A1803E00C220240064BD21853
:100340008007C00E8901C9B28140FF238340106835
:10035000984308431060704714ED00E000E400E0AB
:10036000F0B581B0002846D00446534A13680120F6
:1003700003408B4208D213680126B3430B4313603A
:10038000126832408A4237D1009121688A074B4B6C
:1003900010D54A0706D5072212021B681343474AA5
:1003A0001360464B1A68F0239A43A3681343434AE9
:1003B0001360424BC90722D13F49086801263040EB
:1003C000009A904205D90868B04308600868C007E1
:1003D00012D12078400706D5072000021968814312
:1003E000E068084318601A681007810F3548022931
:1003F00012D2044650E00126304601B0F0BD6168DB
:1004000003290DD01A1F02290FD0012912D1126819
:1004100092030646F0D511E0032926D12A4C3BE091
:100420001A6B92030646E7D508E012689201064669
:10043000E2D503E0126892070646DDD51868032668
:10044000B04308431860FFF71DFF07461C4D1B4BC8
:1004500018680C210140606880008142ACD0FFF731
:1004600011FFC01BA842F2D9C6E70321CB031349F1
:10047000896A0F240C401549095D94021A40240F23
:10048000134D2C5D9A4202D033049A4200E00E488C
:1004900001F0C8F94443094B18680006000F0D49E4
:1004A000085CC4400C4804600320FFF707FF0026E7
:1004B000304601B0F0BDC0460020024004100240AA
:1004C0008813000000127A00006CDC023A1A00085F
:1004D0002A1A00081A1A000808000020F0B587B090
:1004E00004460120002C00D145E204902078C0078A
:1004F000F94E05940CD071680C200140042900D0FD
:1005000090E03068800303D56068002800D120E1C6
:100510002078800721D570680007800F0ED07068A2
:100520000C210140082900D09DE00320C003716820
:1005300001400120C003814200D094E03068800770
:10054000059C03D5E068012800D002E13068F8215D
:1005500088432169C90001433160059C2078000768
:1005600024D42078400737D42078C00600D4D3E0C4
:1005700005984069411D00D1C2E0012800D030E15A
:10058000706B042101437163706B0121014371633E
:10059000FFF778FE0546706B800700D5B4E0FFF7E3
:1005A00071FE411B03200229F5D9E4E1706AE1697B
:1005B000002900D181E0012108437062FFF762FE4B
:1005C0000546706A8007CCD4FFF75CFE401B02280A
:1005D000F7D9032007B0F0BD012003900107F069AF
:1005E0000840029006D1F0690843F061F0690840C4
:1005F000069006980191E14F3868C0054AD40398E7
:100600000402386820433860FFF73CFE054638682E
:1006100020423FD1FFF736FE401B6428F7D9032064
:1006200007B0F0BD71680140082908D10320C0035C
:100630007168014001200004814200D161E76168D6
:1006400001204704002900D117E1052900D12BE141
:10065000012900D12CE1010432688A43326081040F
:100660003068884327E13068059CE168002936D06E
:10067000012108433060FFF705FE0546306880071A
:1006800000D563E7FFF7FEFD401B0228F6D90320E3
:1006900007B0F0BD05988068002800D1B6E00528B5
:1006A00000D1C9E0012800D1CAE0306A039988432B
:1006B0003062306A04218843C5E0012188437062BA
:1006C000FFF7E0FD0546706A800700D449E7FFF7B1
:1006D000D9FD401B0228F6D9032007B0F0BD012147
:1006E00088433060FFF7CEFD05463068800700D4B0
:1006F00033E7FFF7C7FD411B03200229F5D93AE193
:10070000706B042188437063706BF82188430599EE
:100710008969C900014371630598007880060BD58B
:1007200071680C2001400C2939D1706B800303D50E
:100730000598006A01280CD10598446A002C00D164
:10074000E1E070680C210140082905D1012C00D09E
:10075000C4E0049807B0F0BD01200206316804929D
:10076000914331604706FFF78DFD0546022C0BD102
:10077000049C3068384200D1DEE0FFF783FD411B66
:1007800003200229F5D9F6E03068384200D1BAE0FA
:10079000FFF778FD411B03200229F5D9EBE07168D2
:1007A0000140082905D10320C0037168014081423E
:1007B000BBD0706B0599096A002900D1A9E001211D
:1007C0000A04104370634C04FFF75CFD0546706B30
:1007D0002042B1D1FFF756FD411B03200229F6D973
:1007E000C9E0706B042101437163706B0121884380
:1007F0007063FFF747FD0546706B80078CD5FFF7E8
:1008000041FD411B03200229F6D9B4E0306A039967
:1008100088433062306A042188433062584CFFF7C5
:1008200031FD0546306A80071DD5FFF72BFD411BC2
:100830000320A142F6D99EE0306A042101433162CF
:10084000306A0399084330624D4CFFF71BFD0546A3
:10085000306A800707D4FFF715FD401BA042F7D987
:10086000032007B0F0BD02980028059C00D07BE66D
:10087000F06901998843F06176E6010432688A43A1
:1008800032608004316881433160FFF7FBFC05462C
:10089000059C3068384200D13AE6FFF7F3FC411B73
:1008A00003206429F5D966E0810432680A43326086
:1008B0000104306808433060FFF7E4FC0546306807
:1008C000384200D024E6FFF7DDFC401B6428F6D94F
:1008D000032007B0F0BDC046001002400320C20351
:1008E00070680240F16A059CA36A9A42049D0DD18A
:1008F0000F221140236B994208D191040840E16A0C
:100900008842284637D1002007B0F0BD284607B0FE
:10091000F0BD01210A04904370634C04FFF7B2FC60
:100920000546706B204200D106E7FFF7ABFC411B88
:1009300003200229F5D91EE0F06A0F218843059AA9
:10094000116B0143F1627B20C00371688143D06A5F
:100950000843916A01437160306820433060FFF7BB
:1009600091FC044630683842CDD1FFF78BFC011B67
:1009700003200229F6D907B0F0BDC0460070004040
:1009800088130000401E010E01D001207047074966
:10099000074A5060074803680B400321890759182C
:1009A000016000209060072111607047FFFFFF0089
:1009B00010E000E020ED00E0FEE7FEE77047704742
:1009C00080B5FFF763FC80BD70470000F0B581B0D3
:1009D000009244006F4B18461438056825430560A3
:1009E0000122150406682E43066095020668AE4390
:1009F0000660550306682E4306601F6802252F40D7
:100A00001C6810263440E41911D11C682C401F6862
:100A100037403C190BD11C682C401F6837403C19EB
:100A200005D11C682C401D6835402C19E5D01C6888
:100A3000E40615D419611968490608D419684906ED
:100A400005D41968490602D419684906F3D50099F6
:100A5000002903D0910302680A43026001B0F0BD8F
:100A60004D480168090608D40168090605D40168E3
:100A7000090602D401680906F3D56521818102685F
:100A8000120608D40268120605D40268120602D4BF
:100A900002681206F3D57222828103681B0608D40D
:100AA00003681B0605D403681B0602D403681B06F3
:100AB000F3D5828103681B0608D403681B0605D49E
:100AC00003681B0602D403681B06F3D56F238381DA
:100AD00003681B0608D403681B0605D403681B06BD
:100AE00002D403681B06F3D5828103681B0608D471
:100AF00003681B0605D403681B0602D403681B06A3
:100B0000F3D52023838103681B0608D403681B06E2
:100B100005D403681B0602D403681B06F3D57723AC
:100B2000838103681B0608D403681B0605D4036889
:100B30001B0602D403681B06F3D5828102681206E5
:100B400008D40268120605D40268120602D40268AC
:100B50001206F3D5692282810268120608D402685F
:100B6000120605D40268120602D402681206F3D5F2
:100B7000742282810268120608D40268120605D423
:100B80000268120602D402681206F3D5818101B010
:100B9000F0BDC046185800401C48004000B59BB04E
:100BA000FFF77EFB0EAC201D3021FFF723FB00205A
:100BB00009901790102712970126119602250E957D
:100BC0002046FFF78BFC002803D0EFF3108072B6AD
:100BD000FEE7344609990D910C910B9107260A9670
:100BE0000AA8FFF7BDFB002803D0EFF3108072B610
:100BF000FEE7E1040791A04A106808431060552100
:100C000008039E4B1A6802431A6049031A688A4314
:100C10001A609B4A4032089259681140596099689D
:100C2000814399600F2004900004D9688143D96002
:100C3000D86894490840D860032080048E4A11681F
:100C4000014311602346A20501928F480168914338
:100C50000160E10502680A430260E10242680A435A
:100C600042607103426A8A4342622103426A0A4334
:100C70004262A10602688A430260E10602680A43F2
:100C800002606203416809921143416005220292A9
:100C90005105446A8C4344621105446A0C43446222
:100CA0005A0705920168914301601A0704681443CA
:100CB00004609903069144688C43446044690C4382
:100CC00044616E490868A8430860086803931843A4
:100CD0000860486898434860486918434861664915
:100CE0008868019E30438860684C20460838036855
:100CF000134303600168EC239943016001681323E7
:100D00000B43036001685F4A1140016004990902C6
:100D100003680B4303600D21090403688B430360E0
:100D2000039A510403680B4303600B2104910905E6
:100D300003688B4303600168314301602046183823
:100D40000168114301604C4E3068079908433060D8
:100D5000029A5002494B1968014319601002196840
:100D60008143196011200004196A01431962039B31
:100D70009804B1680143B160454E304610384521B2
:100D8000016030461C3801680C220A430260016889
:100D900019430160026820210A4302603D48059A18
:100DA0000260364B5869089A1040586169200190DA
:100DB000002200920591FFF709FE01980499009A1C
:100DC000FFF704FE214614390868069A104308917B
:100DD00008600399880204900804079007E00398CC
:100DE00001025869084358616420FFF73BFA3068F4
:100DF0000006FCD54620B081089A1068D2210691E1
:100E000008431060106807990843106010681C4977
:100E10000840106010680999084310602068284055
:100E200021683940081811D12068284021683940CC
:100E300008180BD12068284021683940081805D1CE
:100E400020682840216839400818E7D02068C0068B
:100E500022D4059820612068400600D5B2E02068C1
:100E6000400600D5AEE02068400600D5AAE0206824
:100E70004006F0D5A6E0C046141002400008004825
:100E8000FFFBFFFFFF0FFFFF000400481858004062
:100E90001C48004000E100E03068000608D43068DB
:100EA000000605D43068000602D430680006F3D589
:100EB0006521B1813068000608D43068000605D489
:100EC0003068000602D430680006F3D57222B28181
:100ED0003068000608D43068000605D43068000683
:100EE00002D430680006F3D5B2813068000608D419
:100EF0003068000605D43068000602D43068000669
:100F0000F3D56F20B0813068000608D43068000641
:100F100005D43068000602D430680006F3D5B281EB
:100F20003068000608D43068000605D43068000632
:100F300002D430680006F3D50598B0813068000609
:100F400008D43068000605D43068000602D4306842
:100F50000006F3D57720B0813068000608D43068E9
:100F6000000605D43068000602D430680006F3D5C8
:100F7000B2813068000608D43068000605D43068B5
:100F8000000602D430680006F3D50198B0813068BD
:100F9000000608D43068000605D43068000602D484
:100FA00030680006F3D57420B0813068000608D49C
:100FB0003068000605D43068000602D430680006A8
:100FC000F3D5B181089A106806990843106010683B
:100FD000079908431060106804990843106010686E
:100FE00009990843106020680421084022683A40AB
:100FF000101811D12068084022683A4010180BD10F
:101000002068084022683A40101805D1206808403E
:1010100022683A401018E6D02068C00610D4E06874
:101020002268520600D594E02268520600D590E06E
:101030002268520600D58CE022685206F0D588E07E
:101040003068000608D43068000605D43068000611
:1010500002D430680006F3D56522B28130680006FC
:1010600008D43068000605D43068000602D4306821
:101070000006F3D57220B08133681B0608D43368AC
:101080001B0605D433681B0602D433681B06F3D550
:10109000B08133681B0608D433681B0605D4336857
:1010A0001B0602D433681B06F3D56F23B381336864
:1010B0001B0608D433681B0605D433681B0602D40C
:1010C00033681B06F3D5B08133681B0608D4336838
:1010D0001B0605D433681B0602D433681B06F3D500
:1010E000059BB38133681B0608D433681B0605D4FF
:1010F00033681B0602D433681B06F3D5B081306811
:10110000000608D43068000605D43068000602D412
:1011100030680006F3D5B2813068000608D4306824
:10112000000605D43068000602D430680006F3D506
:101130006120B0813068000608D43068000605D40C
:101140003068000602D430680006F3D56420B08110
:1011500000983268120608D43268120605D4326844
:10116000120602D432681206F3D54130C0B2B08103
:10117000089B1868069A104318601868079A10436D
:1011800018601868E64A104018601868099A1043F9
:1011900018602068284022683A40101811D1206851
:1011A000284022683A4010180BD120682840226855
:1011B0003A40101805D12068284022683A4010189B
:1011C000E7D02068C00611D429202061206840069D
:1011D00000D5A1E02068400600D59DE020684006CB
:1011E00000D599E020684006F0D595E0306800060B
:1011F00008D43068000605D43068000602D4306890
:101200000006F3D56522B2813068000608D4306844
:10121000000605D43068000602D430680006F3D515
:101220007223B3813068000608D43068000605D404
:101230003068000602D430680006F3D5B381306808
:10124000000608D43068000605D43068000602D4D1
:1012500030680006F3D56F20B0813068000608D4EE
:101260003068000605D43068000602D430680006F5
:10127000F3D5B3813068000608D43068000605D481
:101280003068000602D430680006F3D50598B081B6
:101290003068000608D43068000605D430680006BF
:1012A00002D430680006F3D57720B081306800069C
:1012B00008D43068000605D43068000602D43068CF
:1012C0000006F3D5B3813068000608D43068000604
:1012D00005D43068000602D430680006F3D50198C2
:1012E000B0813068000608D43068000605D4306844
:1012F000000602D430680006F3D57420B08130684F
:10130000000608D43068000605D43068000602D410
:1013100030680006F3D5B281089B1868069A10431E
:1013200018601868079A104318601868049A1043E8
:1013300018601868099A10431860206808402268ED
:101340003A40101811D12068084022683A4010181D
:101350000BD12068084022683A40101805D1206857
:10136000084022683A401018E7D02068C0060ED422
:10137000E0682268520608D42268520605D4226822
:10138000520602D422685206F3D5C0B288E0306813
:10139000000608D43068000605D43068000602D480
:1013A00030680006F3D56522B2813068000608D4A3
:1013B0003068000605D43068000602D430680006A4
:1013C000F3D57220B08133681B0608D433681B063E
:1013D00005D433681B0602D433681B06F3D5B081ED
:1013E00033681B0608D433681B0605D433681B0614
:1013F00002D433681B06F3D56F23B38133681B0611
:1014000008D433681B0605D433681B0602D433683E
:101410001B06F3D5B08133681B0608D433681B065E
:1014200005D433681B0602D433681B06F3D5059B2D
:10143000B38133681B0608D433681B0605D43368B0
:101440001B0602D433681B06F3D5B0813068000652
:1014500008D43068000605D43068000602D430682D
:101460000006F3D5B2813068000608D43068000663
:1014700005D43068000602D430680006F3D5612038
:10148000B0813068000608D43068000605D43068A2
:10149000000602D430680006F3D56420B081002035
:1014A0000290089B1868069A104318601868079AFB
:1014B000104318601868D94A104018601868099AD3
:1014C000104318602068284023683B40181811D149
:1014D0002068284023683B4018180BD1206828401A
:1014E00023683B40181805D12068284023683B40FA
:1014F0001818E7D02068C00614D42820206120687E
:10150000400600D5A4E02068400600D5A0E0206891
:10151000400600D59CE020684006F0D598E0C04623
:10152000FFFBFFFF3068000608D43068000605D4D2
:101530003068000602D430680006F3D56523B38115
:101540003068000608D43068000605D4306800060C
:1015500002D430680006F3D57220B08132681206DA
:1015600008D43268120605D43268120602D43268F2
:101570001206F3D5B0813268120608D4326812061A
:1015800005D43268120602D432681206F3D56F22EF
:10159000B2813268120608D43268120605D4326865
:1015A000120602D432681206F3D5B08132681206F0
:1015B00008D43268120605D43268120602D43268A2
:1015C0001206F3D5059AB2813268120608D4326841
:1015D000120605D43268120602D432681206F3D518
:1015E0007722B2813268120608D43268120605D416
:1015F0003268120602D432681206F3D5B081306820
:10160000000608D43068000605D43068000602D40D
:1016100030680006F3D50198B0813068000608D420
:101620003068000605D43068000602D43068000631
:10163000F3D57420B0813068000608D43068000605
:1016400005D43068000602D430680006F3D5B381B3
:10165000029800020290089A1068069B18431060D6
:101660001068079B184310601068049B18431060B3
:101670001068099B184310602068084023683B40AD
:10168000181811D12068084023683B4018180BD166
:101690002068084023683B40181805D1206808409E
:1016A00023683B401818E7D02068C0060FD4E068D4
:1016B000594B2168490608D42168490605D4216898
:1016C000490602D421684906F3D5C0B289E03068E2
:1016D000000608D43068000605D43068000602D43D
:1016E00030680006F3D56520B0813168090608D45A
:1016F0003168090605D43168090602D43168090643
:10170000F3D57221B18133681B0608D433681B06F8
:1017100005D433681B0602D433681B06F3D5B181A8
:1017200033681B0608D433681B0605D433681B06D0
:1017300002D433681B06F3D56F23B38133681B06CD
:1017400008D433681B0605D433681B0602D43368FB
:101750001B06F3D5B18133681B0608D433681B061A
:1017600005D433681B0602D433681B06F3D5059BEA
:10177000B38133681B0608D433681B0605D433686D
:101780001B0602D433681B06F3D5B1813168090604
:1017900008D43168090605D43168090602D43168D5
:1017A0000906F3D5B0811C4B3068000608D43068B8
:1017B000000605D43068000602D430680006F3D570
:1017C0006120B0813068000608D43068000605D476
:1017D0003068000602D430680006F3D56420B0817A
:1017E00000200299014309B25869039A52029142BA
:1017F00003DB40210843586107E0402290435861D1
:101800000748814201DCFFF7EAFA039801025869B0
:101810008843FFF7E8FAC04600080048FFFBFFFFD7
:1018200000FEFFFF43088B421AD3002203098B42BC
:1018300079D3030A8B425ED3030B8B4242D3030C52
:101840008B4227D30902FF2212BA030C8B4202D328
:101850001212090203D0030B8B4233D31AE0D3E0F8
:10186000411A8041401C704703460B4371D4430822
:101870008B42F5D3002203098B4254D3030A8B42D7
:1018800039D3030B8B421DD3030C8B4202D39446F6
:101890006EE0090AC30B8B4201D3CB03C01A52413D
:1018A000830B8B4201D38B03C01A5241430B8B42F3
:1018B00001D34B03C01A5241030B8B4201D30B03DC
:1018C000C01A5241C30A8B4201D3CB02C01A524103
:1018D000830A8B4201D38B02C01A5241430A8B42C6
:1018E00001D34B02C01A5241030A8B4201D30B02AF
:1018F000C01A5241CDD2C3098B4201D3CB01C01AC9
:10190000524183098B4201D38B01C01A52414309D2
:101910008B4201D34B01C01A524103098B4201D3C0
:101920000B01C01A5241C3088B4201D3CB00C01A2D
:10193000524183088B4201D38B00C01A52414308A5
:101940008B4201D34B00C01A5241411A5241100040
:101950007047CA0F00D04942031000D340425340A1
:1019600000229C4603098B422DD3030A8B4212D3DB
:101970008901FC2212BA030A8B420CD3890192110D
:101980008B4208D3890192118B4204D3890137D04D
:10199000921100E08909C3098B4201D3CB01C01A1F
:1019A000524183098B4201D38B01C01A5241430932
:1019B0008B4201D34B01C01A524103098B4201D320
:1019C0000B01C01A5241C3088B4201D3CB00C01A8D
:1019D000524183088B4201D38B00C01A5241D9D2A5
:1019E00043088B4201D34B00C01A5241411A00D226
:1019F00001465241104663465B1000D34042704797
:101A000063465B1000D3404201B50021004201D083
:101A1000C9430846C046C04602BD000000000000A1
:101A20000000010203040607080902030405060773
:101A300008090A0B0C0D0E0F101001020304050615
:101A40000708090A0B0C0D0E0F100000701A000891
:101A500000000020100000001C010008801A00088F
:101A600010000020680600003C0100080000000093
:101A7000010000000400000000127A0000000000D5
:04000005080000C12E
:00000001FF
